:100000000C9434000C9449000C9449000C94490061
:100010000C9449000C9449000C9449000C9449003C
:100020000C9449000C9449000C9449000C9449002C
:100030000C9449000C9449000C9449000C9449001C
:100040000C9449000C9449000C9449000C9449000C
:100050000C9449000C9449000C9449000C944900FC
:100060000C9449000C94490011241FBECFEFD8E036
:10007000DEBFCDBF11E0A0E0B1E0EEE4FBE002C0E6
:1000800005900D92AE31B107D9F70E9447030C9449
:10009000A5050C940000CF93DF93EC010E94D302DE
:1000A00061E070E0CE01DF91CF910C940202CF931A
:1000B000DF93EC0160E00E943603CE01DF91CF9127
:1000C0000C948302CF93DF93EC0161E070E08881B0
:1000D00099810E94810180E20E94A70061E070E0A6
:1000E0008A819B810E94810180E20E94A70088E1B1
:1000F00091E00E94B90061E070E08C819D810E94D6
:10010000810180E20E94A70061E070E08E819F8102
:100110000E94810180E20E94A70088E191E00E9494
:10012000B9008BE191E00E94B9008BE191E0DF9191
:10013000CF910C94B900E0910001F091010115827A
:1001400087E6848386E0828388E181830895E09155
:100150000001F0910101908195FFFDCF8683089504
:10016000E0910001F0910101808187FFFDCF868140
:100170000895CF93DF93EC018991811103C0DF9142
:10018000CF9108950E94A700F7CFCF92DF92EF9210
:10019000FF920F931F93CF93DF938C016C01D0E0FC
:1001A000C0E07B0181E0E81AF1080E94B000F6018E
:1001B00081936F012196882319F0CE15DF05ACF3EA
:1001C000C00FD11F1882802FDF91CF911F910F9107
:1001D000FF90EF90DF90CF9008954F925F926F92D3
:1001E0007F928F929F92AF92BF92CF92DF92EF92C7
:1001F000FF920F931F93CF93DF93CDB7DEB72A976C
:100200000FB6F894DEBF0FBECDBF6B017C018A0133
:10021000CE0101965C018AE0F50111928A95E9F719
:10022000C114D104E104F104C9F480E32A960FB6A5
:10023000F894DEBF0FBECDBFDF91CF911F910F911C
:10024000FF90EF90DF90CF90BF90AF909F908F90F6
:100250007F906F905F904F900C94A700F7FE0BC0BB
:100260008DE20E94A700F094E094D094C094C11C49
:10027000D11CE11CF11C45018AE0482E512C612C57
:10028000712CC701B601A30192010E949D03F401E4
:1002900061934F0169017A01CF018A199B09C11449
:1002A000D104E104F10469F79801215031092A30A1
:1002B000310508F08C010A0D1B1D01501109C80100
:1002C0008A199B090196B9F42A960FB6F894DEBFF5
:1002D0000FBECDBFDF91CF911F910F91FF90EF9097
:1002E000DF90CF90BF90AF909F908F907F906F9056
:1002F0005F904F900895F8018081805D0E94A70073
:10030000DCCFAB016630710514F045E050E0BC0174
:10031000990F880B990B0C94ED008F929F92AF92DE
:10032000BF92CF92DF92EF92FF920F931F93CF93E2
:10033000DF936B017C01EA0189010E9450044B01AB
:100340005C010E9488049B01AC01C701B6010E94B8
:10035000DE036B017C01AE01C501B4010E94ED001A
:100360008EE20E94A700E8011C161D0614F0C1E0F1
:10037000D0E0CB30D10514F0CAE0D0E020E030E08E
:10038000A901C701B6010E944B0487FF04C0F7FA18
:10039000F094F7F8F09410E000E020E030E040E264
:1003A00051E4C701B6010E9438056B017C010E942F
:1003B000500480E3860F0E94A700C701B6010E9487
:1003C0005004072E000C880B990B0E9488049B0197
:1003D000AC01C701B6010E94DE036B017C010F5F17
:1003E0001F4F0C171D07CCF2DF91CF911F910F917A
:1003F000FF90EF90DF90CF90BF90AF909F908F9045
:100400000895089588309105BCF46115710549F58A
:10041000E0910201F0910301308141E050E0BA0126
:1004200002C0660F771F8A95E2F7CB018095832380
:100430008083822F90E008958E3091054CF40897C8
:100440006115710549F5E0910E01F0910F01E4CFBE
:100450000E976115710599F5E0910801F091090178
:10046000DBCFE0910201F09103016130710571F180
:10047000E0910201F091030162307105D1F1E09148
:100480000601F0910701208130E002C035952795E3
:100490008A95E2F72170CDCFE0910E01F0910F0126
:1004A0006130710599F0E0910E01F0910F01623019
:1004B0007105F9F0E0911201F0911301E4CF613080
:1004C000710561F4E0910801F0910901908101C08A
:1004D000660F8A95EAF7692B6083ABCFE0910C0138
:1004E000F0910D016230710571F6E0910801F09113
:1004F0000901908141E050E001C0440F8A95EAF77C
:10050000892F842795CF88309105D4F4E09102019A
:10051000F0910301408121E030E0B90102C0660F93
:10052000771F8A95E2F7CB018095942F98239083CB
:10053000E0910401F0910501908189238083089561
:100540008E309105C4F4E0910E01F0910F014081CD
:10055000089721E030E0B90102C0660F771F8A9545
:10056000E2F7CB018095942F98239083E0911001BE
:10057000F0911101E1CFE0910801F0910901408172
:100580000E9721E030E0B90102C0660F771F8A950F
:10059000E2F7CB018095942F98239083E0910A0194
:1005A000F0910B01C9CF88309105D4F4E09102019C
:1005B000F0910301408121E030E0B90102C0660FF3
:1005C000771F8A95E2F7CB01962F9095942390831D
:1005D000E0910401F09105019081892B80830895B9
:1005E0008E309105C4F4E0910E01F0910F0140812D
:1005F000089721E030E0B90102C0660F771F8A95A5
:10060000E2F7CB01962F909594239083E09110010F
:10061000F0911101E1CFE0910801F09109014081D1
:100620000E9721E030E0B90102C0660F771F8A956E
:10063000E2F7CB018095942F98239083E0910A01F3
:10064000F0910B0190818923C9CFE6E2F0E085307B
:10065000910539F08630910531F0049711F4E3E209
:10066000F0E080810895E9E2F0E0FBCFE8E2F0E01D
:100670008530910539F08630910531F0049711F4F9
:10068000E5E2F0E060830895EBE2F0E0FBCFCF938A
:10069000DF93CDB7DEB72C970FB6F894DEBF0FBE51
:1006A000CDBF0E949B008091140190911501A091F3
:1006B0001601B091170189879A87AB87BC87CE0155
:1006C00001967C0188E0F70111928A95E9F782E0B2
:1006D00090E00E94830283E090E00E9483024E013A
:1006E000FDE08F0E911C6E0189E0C80ED11C8701C0
:1006F000F601A190B1906F01C5010E944B0063E02B
:1007000070E082E090E00E940202F8019183808311
:1007100063E070E083E090E00E940202F8019383BE
:100720008283C5010E9457000C5F1F4FC814D90473
:10073000F9F6C7010E946200D6CF052E97FB1EF482
:1007400000940E94B40357FD07D00E94BC0307FC2D
:1007500003D04EF40C94B4035095409530952195F8
:100760003F4F4F4F5F4F08959095809570956195DD
:100770007F4F8F4F9F4F0895A1E21A2EAA1BBB1BDC
:10078000FD010DC0AA1FBB1FEE1FFF1FA217B3075D
:10079000E407F50720F0A21BB30BE40BF50B661F73
:1007A000771F881F991F1A9469F760957095809537
:1007B00090959B01AC01BD01CF0108955058BB2716
:1007C000AA270E94F6030C94FE040E94F00438F05D
:1007D0000E94F70420F039F49F3F19F426F40C949A
:1007E000ED040EF4E095E7FB0C94E704E92F0E947A
:1007F0000F0558F3BA17620773078407950720F0AF
:1008000079F4A6F50C9431050EF4E0950B2EBA2F71
:10081000A02D0B01B90190010C01CA01A001112406
:10082000FF27591B99F0593F50F4503E68F11A16B2
:10083000F040A22F232F342F4427585FF3CF469543
:1008400037952795A795F0405395C9F77EF41F1665
:10085000BA0B620B730B840BBAF09150A1F0FF0F2F
:10086000BB1F661F771F881FC2F70EC0BA0F621F1B
:10087000731F841F48F4879577956795B795F7950B
:100880009E3F08F0B0CF9395880F08F09927EE0FA0
:100890009795879508950E94C30408F481E0089510
:1008A0000E9457046894B1110C94320508950E9477
:1008B000170588F09F5798F0B92F9927B751B0F0D6
:1008C000E1F0660F771F881F991F1AF0BA95C9F7D4
:1008D00014C0B13091F00E943105B1E008950C943C
:1008E0003105672F782F8827B85F39F0B93FCCF3EF
:1008F000869577956795B395D9F73EF49095809551
:10090000709561957F4F8F4F9F4F0895E89409C070
:1009100097FB3EF490958095709561957F4F8F4F32
:100920009F4F9923A9F0F92F96E9BB279395F69548
:10093000879577956795B795F111F8CFFAF4BB0FC6
:1009400011F460FF1BC06F5F7F4F8F4F9F4F16C02A
:10095000882311F096E911C0772321F09EE8872FB4
:10096000762F05C0662371F096E8862F70E060E070
:100970002AF09A95660F771F881FDAF7880F9695E9
:10098000879597F90895990F0008550FAA0BE0E88D
:10099000FEEF16161706E807F907C0F01216130641
:1009A000E407F50798F0621B730B840B950B39F481
:1009B0000A2661F0232B242B252B21F408950A26E7
:1009C00009F4A140A6958FEF811D811D089597F927
:1009D0009F6780E870E060E008959FEF80EC0895E5
:1009E00000240A941616170618060906089500240E
:1009F0000A9412161306140605060895092E039488
:100A0000000C11F4882352F0BB0F40F4BF2B11F4FB
:100A100060FF04C06F5F7F4F8F4F9F4F089557FD5A
:100A20009058440F551F59F05F3F71F04795880F5C
:100A300097FB991F61F09F3F79F0879508951216F3
:100A400013061406551FF2CF4695F1DF08C016169F
:100A500017061806991FF1CF869571056105089450
:100A60000895E894BB2766277727CB0197F9089567
:100A70000E944B050C94FE040E94F00438F00E9482
:100A8000F70420F0952311F00C94E7040C94ED0486
:100A900011240C9432050E940F0570F3959FC1F349
:100AA000950F50E0551F629FF001729FBB27F00D1C
:100AB000B11D639FAA27F00DB11DAA1F649F662771
:100AC000B00DA11D661F829F2227B00DA11D621FC0
:100AD000739FB00DA11D621F839FA00D611D221F7A
:100AE000749F3327A00D611D231F849F600D211D5E
:100AF000822F762F6A2F11249F5750409AF0F1F0E1
:100B000088234AF0EE0FFF1FBB1F661F771F881F49
:100B100091505040A9F79E3F510580F00C94E70496
:100B20000C9432055F3FE4F3983ED4F386957795B5
:100B30006795B795F795E7959F5FC1F7FE2B880FEF
:0E0B4000911D9695879597F90895F894FFCF2B
:100B4E00C0002B002A0029002800270026002500BF
:0E0B5E0024002300050006000A0D000A000016
:00000001FF
